{
  "_format": "hh-sol-artifact-1",
  "contractName": "OneLine",
  "sourceName": "contracts/OneLine.sol",
  "abi": [
    {
      "inputs": [],
      "stateMutability": "payable",
      "type": "constructor"
    },
    {
      "anonymous": false,
      "inputs": [
        {
          "indexed": true,
          "internalType": "address",
          "name": "from",
          "type": "address"
        },
        {
          "indexed": false,
          "internalType": "uint256",
          "name": "timestamp",
          "type": "uint256"
        },
        {
          "indexed": false,
          "internalType": "string",
          "name": "message",
          "type": "string"
        },
        {
          "indexed": false,
          "internalType": "uint256",
          "name": "mood",
          "type": "uint256"
        }
      ],
      "name": "NewEntry",
      "type": "event"
    },
    {
      "inputs": [
        {
          "internalType": "string",
          "name": "_message",
          "type": "string"
        },
        {
          "internalType": "uint256",
          "name": "_mood",
          "type": "uint256"
        }
      ],
      "name": "createEntry",
      "outputs": [],
      "stateMutability": "nonpayable",
      "type": "function"
    },
    {
      "inputs": [],
      "name": "getAllEntries",
      "outputs": [
        {
          "components": [
            {
              "internalType": "address",
              "name": "author",
              "type": "address"
            },
            {
              "internalType": "string",
              "name": "message",
              "type": "string"
            },
            {
              "internalType": "uint256",
              "name": "timestamp",
              "type": "uint256"
            },
            {
              "internalType": "uint256",
              "name": "mood",
              "type": "uint256"
            }
          ],
          "internalType": "struct OneLine.Entry[]",
          "name": "",
          "type": "tuple[]"
        }
      ],
      "stateMutability": "view",
      "type": "function"
    },
    {
      "inputs": [],
      "name": "getTotalEntries",
      "outputs": [
        {
          "internalType": "uint256",
          "name": "",
          "type": "uint256"
        }
      ],
      "stateMutability": "view",
      "type": "function"
    },
    {
      "inputs": [
        {
          "internalType": "address",
          "name": "",
          "type": "address"
        }
      ],
      "name": "lastEntryAt",
      "outputs": [
        {
          "internalType": "uint256",
          "name": "",
          "type": "uint256"
        }
      ],
      "stateMutability": "view",
      "type": "function"
    }
  ],
  "bytecode": "0x608060405262000033604051806060016040528060258152602001620014b9602591396200005c60201b620006a41760201c565b61016d4442620000449190620001a9565b62000050919062000246565b600181905550620002ed565b620000fc8160405160240162000073919062000169565b6040516020818303038152906040527f41304fac000000000000000000000000000000000000000000000000000000007bffffffffffffffffffffffffffffffffffffffffffffffffffffffff19166020820180517bffffffffffffffffffffffffffffffffffffffffffffffffffffffff8381831617835250505050620000ff60201b60201c565b50565b60008151905060006a636f6e736f6c652e6c6f679050602083016000808483855afa5050505050565b600062000135826200018d565b62000141818562000198565b93506200015381856020860162000210565b6200015e81620002dc565b840191505092915050565b6000602082019050818103600083015262000185818462000128565b905092915050565b600081519050919050565b600082825260208201905092915050565b6000620001b68262000206565b9150620001c38362000206565b9250827fffffffffffffffffffffffffffffffffffffffffffffffffffffffffffffffff03821115620001fb57620001fa6200027e565b5b828201905092915050565b6000819050919050565b60005b838110156200023057808201518184015260208101905062000213565b8381111562000240576000848401525b50505050565b6000620002538262000206565b9150620002608362000206565b925082620002735762000272620002ad565b5b828206905092915050565b7f4e487b7100000000000000000000000000000000000000000000000000000000600052601160045260246000fd5b7f4e487b7100000000000000000000000000000000000000000000000000000000600052601260045260246000fd5b6000601f19601f8301169050919050565b6111bc80620002fd6000396000f3fe608060405234801561001057600080fd5b506004361061004c5760003560e01c806312d491c9146100515780634a0364e81461006f578063d7b7b7be1461008d578063e6af705f146100bd575b600080fd5b6100596100d9565b6040516100669190610e29565b60405180910390f35b610077610124565b6040516100849190610d25565b60405180910390f35b6100a760048036038101906100a291906109d3565b61027f565b6040516100b49190610e29565b60405180910390f35b6100d760048036038101906100d291906109fc565b610297565b005b600061011c6040518060400160405280601981526020017f5765206861766520256420746f74616c20656e7472696573210000000000000081525060005461073d565b600054905090565b60606002805480602002602001604051908101604052809291908181526020016000905b8282101561027657838290600052602060002090600402016040518060800160405290816000820160009054906101000a900473ffffffffffffffffffffffffffffffffffffffff1673ffffffffffffffffffffffffffffffffffffffff1673ffffffffffffffffffffffffffffffffffffffff1681526020016001820180546101d190611028565b80601f01602080910402602001604051908101604052809291908181526020018280546101fd90611028565b801561024a5780601f1061021f5761010080835404028352916020019161024a565b820191906000526020600020905b81548152906001019060200180831161022d57829003601f168201915b505050505081526020016002820154815260200160038201548152505081526020019060010190610148565b50505050905090565b60036020528060005260406000206000915090505481565b42601e600360003373ffffffffffffffffffffffffffffffffffffffff1673ffffffffffffffffffffffffffffffffffffffff168152602001908152602001600020546102e49190610f54565b10610324576040517f08c379a000000000000000000000000000000000000000000000000000000000815260040161031b90610e09565b60405180910390fd5b42600360003373ffffffffffffffffffffffffffffffffffffffff1673ffffffffffffffffffffffffffffffffffffffff16815260200190815260200160002081905550600160008082825461037a9190610f54565b925050819055506103c06040518060400160405280601781526020017f257320686173206372656174656420616e20656e747279000000000000000000815250336107d9565b600260405180608001604052803373ffffffffffffffffffffffffffffffffffffffff16815260200184815260200142815260200183815250908060018154018082558091505060019003906000526020600020906004020160009091909190915060008201518160000160006101000a81548173ffffffffffffffffffffffffffffffffffffffff021916908373ffffffffffffffffffffffffffffffffffffffff160217905550602082015181600101908051906020019061048592919061089e565b506040820151816002015560608201518160030155505061016d60015442446104ae9190610f54565b6104b89190610f54565b6104c2919061105a565b6001819055506105096040518060400160405280601681526020017f52616e646f6d20232067656e6572617465643a2025640000000000000000000081525060015461073d565b600180541161064e576105516040518060400160405280600781526020017f257320776f6e2100000000000000000000000000000000000000000000000000815250336107d9565b6000655af3107a400090504781111561059f576040517f08c379a000000000000000000000000000000000000000000000000000000000815260040161059690610de9565b60405180910390fd5b60003373ffffffffffffffffffffffffffffffffffffffff16826040516105c590610d10565b60006040518083038185875af1925050503d8060008114610602576040519150601f19603f3d011682016040523d82523d6000602084013e610607565b606091505b505090508061064b576040517f08c379a000000000000000000000000000000000000000000000000000000000815260040161064290610dc9565b60405180910390fd5b50505b3373ffffffffffffffffffffffffffffffffffffffff167f6214745df6d9c5c57c4e32c0723900630e1d41abc7e240ecabcdcdc42fd6b88f42848460405161069893929190610e44565b60405180910390a25050565b61073a816040516024016106b89190610d47565b6040516020818303038152906040527f41304fac000000000000000000000000000000000000000000000000000000007bffffffffffffffffffffffffffffffffffffffffffffffffffffffff19166020820180517bffffffffffffffffffffffffffffffffffffffffffffffffffffffff8381831617835250505050610875565b50565b6107d58282604051602401610753929190610d99565b6040516020818303038152906040527f9710a9d0000000000000000000000000000000000000000000000000000000007bffffffffffffffffffffffffffffffffffffffffffffffffffffffff19166020820180517bffffffffffffffffffffffffffffffffffffffffffffffffffffffff8381831617835250505050610875565b5050565b61087182826040516024016107ef929190610d69565b6040516020818303038152906040527f319af333000000000000000000000000000000000000000000000000000000007bffffffffffffffffffffffffffffffffffffffffffffffffffffffff19166020820180517bffffffffffffffffffffffffffffffffffffffffffffffffffffffff8381831617835250505050610875565b5050565b60008151905060006a636f6e736f6c652e6c6f679050602083016000808483855afa5050505050565b8280546108aa90611028565b90600052602060002090601f0160209004810192826108cc5760008555610913565b82601f106108e557805160ff1916838001178555610913565b82800160010185558215610913579182015b828111156109125782518255916020019190600101906108f7565b5b5090506109209190610924565b5090565b5b8082111561093d576000816000905550600101610925565b5090565b600061095461094f84610eb3565b610e82565b90508281526020810184848401111561096c57600080fd5b610977848285610fe6565b509392505050565b60008135905061098e81611158565b92915050565b600082601f8301126109a557600080fd5b81356109b5848260208601610941565b91505092915050565b6000813590506109cd8161116f565b92915050565b6000602082840312156109e557600080fd5b60006109f38482850161097f565b91505092915050565b60008060408385031215610a0f57600080fd5b600083013567ffffffffffffffff811115610a2957600080fd5b610a3585828601610994565b9250506020610a46858286016109be565b9150509250929050565b6000610a5c8383610c8f565b905092915050565b610a6d81610faa565b82525050565b610a7c81610faa565b82525050565b6000610a8d82610ef3565b610a978185610f16565b935083602082028501610aa985610ee3565b8060005b85811015610ae55784840389528151610ac68582610a50565b9450610ad183610f09565b925060208a01995050600181019050610aad565b50829750879550505050505092915050565b6000610b0282610efe565b610b0c8185610f32565b9350610b1c818560208601610ff5565b610b2581611147565b840191505092915050565b6000610b3b82610efe565b610b458185610f43565b9350610b55818560208601610ff5565b610b5e81611147565b840191505092915050565b6000610b76602783610f43565b91507f4661696c656420746f207769746864726177206d6f6e65792066726f6d20636f60008301527f6e74726163742e000000000000000000000000000000000000000000000000006020830152604082019050919050565b6000610bdc603783610f43565b91507f547279696e6720746f207769746864726177206d6f7265206d6f6e657920746860008301527f616e207468697320636f6e7472616374206861732e2e2e0000000000000000006020830152604082019050919050565b6000610c42600083610f27565b9150600082019050919050565b6000610c5c600883610f43565b91507f576169742036306d0000000000000000000000000000000000000000000000006000830152602082019050919050565b6000608083016000830151610ca76000860182610a64565b5060208301518482036020860152610cbf8282610af7565b9150506040830151610cd46040860182610cf2565b506060830151610ce76060860182610cf2565b508091505092915050565b610cfb81610fdc565b82525050565b610d0a81610fdc565b82525050565b6000610d1b82610c35565b9150819050919050565b60006020820190508181036000830152610d3f8184610a82565b905092915050565b60006020820190508181036000830152610d618184610b30565b905092915050565b60006040820190508181036000830152610d838185610b30565b9050610d926020830184610a73565b9392505050565b60006040820190508181036000830152610db38185610b30565b9050610dc26020830184610d01565b9392505050565b60006020820190508181036000830152610de281610b69565b9050919050565b60006020820190508181036000830152610e0281610bcf565b9050919050565b60006020820190508181036000830152610e2281610c4f565b9050919050565b6000602082019050610e3e6000830184610d01565b92915050565b6000606082019050610e596000830186610d01565b8181036020830152610e6b8185610b30565b9050610e7a6040830184610d01565b949350505050565b6000604051905081810181811067ffffffffffffffff82111715610ea957610ea8611118565b5b8060405250919050565b600067ffffffffffffffff821115610ece57610ecd611118565b5b601f19601f8301169050602081019050919050565b6000819050602082019050919050565b600081519050919050565b600081519050919050565b6000602082019050919050565b600082825260208201905092915050565b600081905092915050565b600082825260208201905092915050565b600082825260208201905092915050565b6000610f5f82610fdc565b9150610f6a83610fdc565b9250827fffffffffffffffffffffffffffffffffffffffffffffffffffffffffffffffff03821115610f9f57610f9e61108b565b5b828201905092915050565b6000610fb582610fbc565b9050919050565b600073ffffffffffffffffffffffffffffffffffffffff82169050919050565b6000819050919050565b82818337600083830152505050565b60005b83811015611013578082015181840152602081019050610ff8565b83811115611022576000848401525b50505050565b6000600282049050600182168061104057607f821691505b60208210811415611054576110536110e9565b5b50919050565b600061106582610fdc565b915061107083610fdc565b9250826110805761107f6110ba565b5b828206905092915050565b7f4e487b7100000000000000000000000000000000000000000000000000000000600052601160045260246000fd5b7f4e487b7100000000000000000000000000000000000000000000000000000000600052601260045260246000fd5b7f4e487b7100000000000000000000000000000000000000000000000000000000600052602260045260246000fd5b7f4e487b7100000000000000000000000000000000000000000000000000000000600052604160045260246000fd5b6000601f19601f8301169050919050565b61116181610faa565b811461116c57600080fd5b50565b61117881610fdc565b811461118357600080fd5b5056fea26469706673582212207d2c5b27d8580935e9bc36f058b12a5818597a51d487a11dccc5e7c72e5f0e0664736f6c63430008000033596f20796f2c204920616d206120636f6e747261637420616e64204920616d20736d617274",
  "linkReferences": {},
  "deployedLinkReferences": {}
}